{
  "contractName": "OurTutoCoin",
  "abi": [
    {
      "constant": true,
      "inputs": [],
      "name": "name",
      "outputs": [
        {
          "name": "",
          "type": "string"
        }
      ],
      "payable": false,
      "stateMutability": "view",
      "type": "function"
    },
    {
      "constant": true,
      "inputs": [],
      "name": "decimals",
      "outputs": [
        {
          "name": "",
          "type": "uint8"
        }
      ],
      "payable": false,
      "stateMutability": "view",
      "type": "function"
    },
    {
      "constant": true,
      "inputs": [],
      "name": "owner",
      "outputs": [
        {
          "name": "",
          "type": "address"
        }
      ],
      "payable": false,
      "stateMutability": "view",
      "type": "function"
    },
    {
      "constant": true,
      "inputs": [],
      "name": "symbol",
      "outputs": [
        {
          "name": "",
          "type": "string"
        }
      ],
      "payable": false,
      "stateMutability": "view",
      "type": "function"
    },
    {
      "inputs": [],
      "payable": false,
      "stateMutability": "nonpayable",
      "type": "constructor"
    },
    {
      "anonymous": false,
      "inputs": [
        {
          "indexed": true,
          "name": "from",
          "type": "address"
        },
        {
          "indexed": true,
          "name": "to",
          "type": "address"
        },
        {
          "indexed": false,
          "name": "value",
          "type": "uint256"
        }
      ],
      "name": "Transfer",
      "type": "event"
    },
    {
      "anonymous": false,
      "inputs": [
        {
          "indexed": true,
          "name": "owner",
          "type": "address"
        },
        {
          "indexed": true,
          "name": "spender",
          "type": "address"
        },
        {
          "indexed": false,
          "name": "value",
          "type": "uint256"
        }
      ],
      "name": "Approval",
      "type": "event"
    },
    {
      "anonymous": false,
      "inputs": [
        {
          "indexed": true,
          "name": "previousOwner",
          "type": "address"
        },
        {
          "indexed": true,
          "name": "newOwner",
          "type": "address"
        }
      ],
      "name": "OwnershipTransferred",
      "type": "event"
    },
    {
      "anonymous": false,
      "inputs": [
        {
          "indexed": true,
          "name": "to",
          "type": "address"
        },
        {
          "indexed": false,
          "name": "amount",
          "type": "uint256"
        }
      ],
      "name": "Mint",
      "type": "event"
    },
    {
      "constant": true,
      "inputs": [],
      "name": "totalSupply",
      "outputs": [
        {
          "name": "_totalSupply",
          "type": "uint256"
        }
      ],
      "payable": false,
      "stateMutability": "view",
      "type": "function"
    },
    {
      "constant": true,
      "inputs": [
        {
          "name": "tokenOwner",
          "type": "address"
        }
      ],
      "name": "balanceOf",
      "outputs": [
        {
          "name": "balance",
          "type": "uint256"
        }
      ],
      "payable": false,
      "stateMutability": "view",
      "type": "function"
    },
    {
      "constant": true,
      "inputs": [
        {
          "name": "_owner",
          "type": "address"
        },
        {
          "name": "_spender",
          "type": "address"
        }
      ],
      "name": "allowance",
      "outputs": [
        {
          "name": "",
          "type": "uint256"
        }
      ],
      "payable": false,
      "stateMutability": "view",
      "type": "function"
    },
    {
      "constant": false,
      "inputs": [
        {
          "name": "_to",
          "type": "address"
        },
        {
          "name": "_value",
          "type": "uint256"
        }
      ],
      "name": "transfer",
      "outputs": [
        {
          "name": "",
          "type": "bool"
        }
      ],
      "payable": false,
      "stateMutability": "nonpayable",
      "type": "function"
    },
    {
      "constant": false,
      "inputs": [
        {
          "name": "_spender",
          "type": "address"
        },
        {
          "name": "_value",
          "type": "uint256"
        }
      ],
      "name": "approve",
      "outputs": [
        {
          "name": "",
          "type": "bool"
        }
      ],
      "payable": false,
      "stateMutability": "nonpayable",
      "type": "function"
    },
    {
      "constant": false,
      "inputs": [
        {
          "name": "_from",
          "type": "address"
        },
        {
          "name": "_to",
          "type": "address"
        },
        {
          "name": "_value",
          "type": "uint256"
        }
      ],
      "name": "transferFrom",
      "outputs": [
        {
          "name": "",
          "type": "bool"
        }
      ],
      "payable": false,
      "stateMutability": "nonpayable",
      "type": "function"
    },
    {
      "constant": false,
      "inputs": [
        {
          "name": "newOwner",
          "type": "address"
        }
      ],
      "name": "transferOwnership",
      "outputs": [],
      "payable": false,
      "stateMutability": "nonpayable",
      "type": "function"
    },
    {
      "constant": false,
      "inputs": [
        {
          "name": "_to",
          "type": "address"
        },
        {
          "name": "_amount",
          "type": "uint256"
        }
      ],
      "name": "mint",
      "outputs": [
        {
          "name": "",
          "type": "bool"
        }
      ],
      "payable": false,
      "stateMutability": "nonpayable",
      "type": "function"
    }
  ],
  "bytecode": "0x60806040526040805190810160405280601181526020017f4f7572205475746f7269616c20436f696e00000000000000000000000000000081525060019080519060200190620000519291906200015e565b506040805190810160405280600381526020017f4f54430000000000000000000000000000000000000000000000000000000000815250600290805190602001906200009f9291906200015e565b506002600360006101000a81548160ff021916908360ff160217905550348015620000c957600080fd5b5060646000819055506064600460003373ffffffffffffffffffffffffffffffffffffffff1673ffffffffffffffffffffffffffffffffffffffff1681526020019081526020016000208190555033600660006101000a81548173ffffffffffffffffffffffffffffffffffffffff021916908373ffffffffffffffffffffffffffffffffffffffff1602179055506200020d565b828054600181600116156101000203166002900490600052602060002090601f016020900481019282601f10620001a157805160ff1916838001178555620001d2565b82800160010185558215620001d2579182015b82811115620001d1578251825591602001919060010190620001b4565b5b509050620001e19190620001e5565b5090565b6200020a91905b8082111562000206576000816000905550600101620001ec565b5090565b90565b611201806200021d6000396000f3006080604052600436106100ba576000357c0100000000000000000000000000000000000000000000000000000000900463ffffffff16806306fdde03146100bf578063095ea7b31461014f57806318160ddd146101b457806323b872dd146101df578063313ce5671461026457806340c10f191461029557806370a08231146102fa5780638da5cb5b1461035157806395d89b41146103a8578063a9059cbb14610438578063dd62ed3e1461049d578063f2fde38b14610514575b600080fd5b3480156100cb57600080fd5b506100d4610557565b6040518080602001828103825283818151815260200191508051906020019080838360005b838110156101145780820151818401526020810190506100f9565b50505050905090810190601f1680156101415780820380516001836020036101000a031916815260200191505b509250505060405180910390f35b34801561015b57600080fd5b5061019a600480360381019080803573ffffffffffffffffffffffffffffffffffffffff169060200190929190803590602001909291905050506105f5565b604051808215151515815260200191505060405180910390f35b3480156101c057600080fd5b506101c96106e7565b6040518082815260200191505060405180910390f35b3480156101eb57600080fd5b5061024a600480360381019080803573ffffffffffffffffffffffffffffffffffffffff169060200190929190803573ffffffffffffffffffffffffffffffffffffffff169060200190929190803590602001909291905050506106f0565b604051808215151515815260200191505060405180910390f35b34801561027057600080fd5b50610279610aaf565b604051808260ff1660ff16815260200191505060405180910390f35b3480156102a157600080fd5b506102e0600480360381019080803573ffffffffffffffffffffffffffffffffffffffff16906020019092919080359060200190929190505050610ac2565b604051808215151515815260200191505060405180910390f35b34801561030657600080fd5b5061033b600480360381019080803573ffffffffffffffffffffffffffffffffffffffff169060200190929190505050610c8e565b6040518082815260200191505060405180910390f35b34801561035d57600080fd5b50610366610cd7565b604051808273ffffffffffffffffffffffffffffffffffffffff1673ffffffffffffffffffffffffffffffffffffffff16815260200191505060405180910390f35b3480156103b457600080fd5b506103bd610cfd565b6040518080602001828103825283818151815260200191508051906020019080838360005b838110156103fd5780820151818401526020810190506103e2565b50505050905090810190601f16801561042a5780820380516001836020036101000a031916815260200191505b509250505060405180910390f35b34801561044457600080fd5b50610483600480360381019080803573ffffffffffffffffffffffffffffffffffffffff16906020019092919080359060200190929190505050610d9b565b604051808215151515815260200191505060405180910390f35b3480156104a957600080fd5b506104fe600480360381019080803573ffffffffffffffffffffffffffffffffffffffff169060200190929190803573ffffffffffffffffffffffffffffffffffffffff169060200190929190505050610fbf565b6040518082815260200191505060405180910390f35b34801561052057600080fd5b50610555600480360381019080803573ffffffffffffffffffffffffffffffffffffffff169060200190929190505050611046565b005b60018054600181600116156101000203166002900480601f0160208091040260200160405190810160405280929190818152602001828054600181600116156101000203166002900480156105ed5780601f106105c2576101008083540402835291602001916105ed565b820191906000526020600020905b8154815290600101906020018083116105d057829003601f168201915b505050505081565b600081600560003373ffffffffffffffffffffffffffffffffffffffff1673ffffffffffffffffffffffffffffffffffffffff16815260200190815260200160002060008573ffffffffffffffffffffffffffffffffffffffff1673ffffffffffffffffffffffffffffffffffffffff168152602001908152602001600020819055508273ffffffffffffffffffffffffffffffffffffffff163373ffffffffffffffffffffffffffffffffffffffff167f8c5be1e5ebec7d5bd14f71427d1e84f3dd0314c0f7b2291e5b200ac8c7c3b925846040518082815260200191505060405180910390a36001905092915050565b60008054905090565b60008073ffffffffffffffffffffffffffffffffffffffff168373ffffffffffffffffffffffffffffffffffffffff161415151561072d57600080fd5b600460008573ffffffffffffffffffffffffffffffffffffffff1673ffffffffffffffffffffffffffffffffffffffff16815260200190815260200160002054821115151561077b57600080fd5b600560008573ffffffffffffffffffffffffffffffffffffffff1673ffffffffffffffffffffffffffffffffffffffff16815260200190815260200160002060003373ffffffffffffffffffffffffffffffffffffffff1673ffffffffffffffffffffffffffffffffffffffff16815260200190815260200160002054821115151561080657600080fd5b61085882600460008773ffffffffffffffffffffffffffffffffffffffff1673ffffffffffffffffffffffffffffffffffffffff1681526020019081526020016000205461119e90919063ffffffff16565b600460008673ffffffffffffffffffffffffffffffffffffffff1673ffffffffffffffffffffffffffffffffffffffff168152602001908152602001600020819055506108ed82600460008673ffffffffffffffffffffffffffffffffffffffff1673ffffffffffffffffffffffffffffffffffffffff168152602001908152602001600020546111b790919063ffffffff16565b600460008573ffffffffffffffffffffffffffffffffffffffff1673ffffffffffffffffffffffffffffffffffffffff168152602001908152602001600020819055506109bf82600560008773ffffffffffffffffffffffffffffffffffffffff1673ffffffffffffffffffffffffffffffffffffffff16815260200190815260200160002060003373ffffffffffffffffffffffffffffffffffffffff1673ffffffffffffffffffffffffffffffffffffffff1681526020019081526020016000205461119e90919063ffffffff16565b600560008673ffffffffffffffffffffffffffffffffffffffff1673ffffffffffffffffffffffffffffffffffffffff16815260200190815260200160002060003373ffffffffffffffffffffffffffffffffffffffff1673ffffffffffffffffffffffffffffffffffffffff168152602001908152602001600020819055508273ffffffffffffffffffffffffffffffffffffffff168473ffffffffffffffffffffffffffffffffffffffff167fddf252ad1be2c89b69c2b068fc378daa952ba7f163c4a11628f55a4df523b3ef846040518082815260200191505060405180910390a3600190509392505050565b600360009054906101000a900460ff1681565b6000600660009054906101000a900473ffffffffffffffffffffffffffffffffffffffff1673ffffffffffffffffffffffffffffffffffffffff163373ffffffffffffffffffffffffffffffffffffffff16141515610b2057600080fd5b610b35826000546111b790919063ffffffff16565b600081905550610b8d82600460008673ffffffffffffffffffffffffffffffffffffffff1673ffffffffffffffffffffffffffffffffffffffff168152602001908152602001600020546111b790919063ffffffff16565b600460008573ffffffffffffffffffffffffffffffffffffffff1673ffffffffffffffffffffffffffffffffffffffff168152602001908152602001600020819055508273ffffffffffffffffffffffffffffffffffffffff167f0f6798a560793a54c3bcfe86a93cde1e73087d944c0ea20544137d4121396885836040518082815260200191505060405180910390a28273ffffffffffffffffffffffffffffffffffffffff16600073ffffffffffffffffffffffffffffffffffffffff167fddf252ad1be2c89b69c2b068fc378daa952ba7f163c4a11628f55a4df523b3ef846040518082815260200191505060405180910390a36001905092915050565b6000600460008373ffffffffffffffffffffffffffffffffffffffff1673ffffffffffffffffffffffffffffffffffffffff168152602001908152602001600020549050919050565b600660009054906101000a900473ffffffffffffffffffffffffffffffffffffffff1681565b60028054600181600116156101000203166002900480601f016020809104026020016040519081016040528092919081815260200182805460018160011615610100020316600290048015610d935780601f10610d6857610100808354040283529160200191610d93565b820191906000526020600020905b815481529060010190602001808311610d7657829003601f168201915b505050505081565b60008073ffffffffffffffffffffffffffffffffffffffff168373ffffffffffffffffffffffffffffffffffffffff1614151515610dd857600080fd5b600460003373ffffffffffffffffffffffffffffffffffffffff1673ffffffffffffffffffffffffffffffffffffffff168152602001908152602001600020548211151515610e2657600080fd5b610e7882600460003373ffffffffffffffffffffffffffffffffffffffff1673ffffffffffffffffffffffffffffffffffffffff1681526020019081526020016000205461119e90919063ffffffff16565b600460003373ffffffffffffffffffffffffffffffffffffffff1673ffffffffffffffffffffffffffffffffffffffff16815260200190815260200160002081905550610f0d82600460008673ffffffffffffffffffffffffffffffffffffffff1673ffffffffffffffffffffffffffffffffffffffff168152602001908152602001600020546111b790919063ffffffff16565b600460008573ffffffffffffffffffffffffffffffffffffffff1673ffffffffffffffffffffffffffffffffffffffff168152602001908152602001600020819055508273ffffffffffffffffffffffffffffffffffffffff163373ffffffffffffffffffffffffffffffffffffffff167fddf252ad1be2c89b69c2b068fc378daa952ba7f163c4a11628f55a4df523b3ef846040518082815260200191505060405180910390a36001905092915050565b6000600560008473ffffffffffffffffffffffffffffffffffffffff1673ffffffffffffffffffffffffffffffffffffffff16815260200190815260200160002060008373ffffffffffffffffffffffffffffffffffffffff1673ffffffffffffffffffffffffffffffffffffffff16815260200190815260200160002054905092915050565b600660009054906101000a900473ffffffffffffffffffffffffffffffffffffffff1673ffffffffffffffffffffffffffffffffffffffff163373ffffffffffffffffffffffffffffffffffffffff161415156110a257600080fd5b600073ffffffffffffffffffffffffffffffffffffffff168173ffffffffffffffffffffffffffffffffffffffff16141515156110de57600080fd5b8073ffffffffffffffffffffffffffffffffffffffff16600660009054906101000a900473ffffffffffffffffffffffffffffffffffffffff1673ffffffffffffffffffffffffffffffffffffffff167f8be0079c531659141344cd1fd0a4f28419497f9722a3daafe3b4186f6b6457e060405160405180910390a380600660006101000a81548173ffffffffffffffffffffffffffffffffffffffff021916908373ffffffffffffffffffffffffffffffffffffffff16021790555050565b60008282111515156111ac57fe5b818303905092915050565b60008082840190508381101515156111cb57fe5b80915050929150505600a165627a7a72305820ca49397aac8de2583f32aa4d3462c851f00729f7c183f161ab6735b55fd10e4a0029",
  "source": "pragma solidity ^0.4.18;\n\n    /**\n     * @title SafeMath\n     * @dev Math operations with safety checks that throw on error\n     * @notice source: https://github.com/OpenZeppelin/zeppelin-solidity/blob/master/contracts/math/SafeMath.sol\n     */\n\nlibrary SafeMath {\n  function mul(uint256 a, uint256 b) internal pure returns (uint256) {\n    if (a == 0) {\n      return 0;\n    }\n    uint256 c = a * b;\n    assert(c / a == b);\n    return c;\n  }\n\n  function div(uint256 a, uint256 b) internal pure returns (uint256) {\n    // assert(b > 0); // Solidity automatically throws when dividing by 0\n    uint256 c = a / b;\n    // assert(a == b * c + a % b); // There is no case in which this doesn't hold\n    return c;\n  }\n\n  function sub(uint256 a, uint256 b) internal pure returns (uint256) {\n    assert(b <= a);\n    return a - b;\n  }\n\n  function add(uint256 a, uint256 b) internal pure returns (uint256) {\n    uint256 c = a + b;\n    assert(c >= a);\n    return c;\n  }\n}\n\n\t/**\n\t * @title OurTutoCoin\n\t * @dev A one file ERC20 token for the 4th part of the Ethereum Development Walkthrough tutorial series\n\t *\n\t * @notice check https://github.com/OpenZeppelin/zeppelin-solidity for a better, modular code\n\t*/\n\ncontract OurTutoCoin {\n\tusing SafeMath for uint256; // SafeMath methods will be available for the type \"unit256\"\n\n\tuint256 public totalSupply;\n\n\tstring public name = \"Our Tutorial Coin\";\n\tstring public symbol = \"OTC\";\n\tuint8 public decimals = 2;\n\n\tmapping(address => uint256) balances;\n\tmapping (address => mapping (address => uint256)) internal allowed;\n\n\taddress public owner;\n\n\tevent Transfer(address indexed from, address indexed to, uint256 value);\n\tevent Approval(address indexed owner, address indexed spender, uint256 value);\n\tevent OwnershipTransferred(address indexed previousOwner, address indexed newOwner);\n\tevent Mint(address indexed to, uint256 amount);\n\n\t/**\n\t* @dev Throws if called by any account other than the owner.\n\t*/\n\tmodifier onlyOwner() {\n\t\trequire(msg.sender == owner);\n\t\t_;\n\t}\n\n\t/**\n\t* @dev The OurTutoCoin constructor sets the original `owner` of the contract to the sender\n\t* account.\n\t*/\n\tconstructor() public {\n    totalSupply = 100;\n    balances[msg.sender] = 100;\n\t\towner = msg.sender;\n\t}\n\n\tfunction totalSupply() public constant returns (uint256 _totalSupply) {\n\t\treturn totalSupply;\n\t}\n\n\t/**\n\t* @dev Gets the balance of the specified address.\n\t* @param tokenOwner The address to query the the balance of.\n\t* @return An uint256 representing the amount owned by the passed address.\n\t*/\n\tfunction balanceOf(address tokenOwner) public view returns (uint256 balance) {\n\t\t return balances[tokenOwner];\n\t}\n\n\t/**\n\t* @dev Function to check the amount of tokens that an owner allowed to a spender.\n\t* @param _owner address The address which owns the funds.\n\t* @param _spender address The address which will spend the funds.\n\t* @return A uint256 specifying the amount of tokens still available for the spender.\n\t*/\n\tfunction allowance(address _owner, address _spender) public view returns (uint256) {\n\t\treturn allowed[_owner][_spender];\n\t}\n\n\t/**\n\t* @dev transfer token for a specified address\n\t* @param _to The address to transfer to.\n\t* @param _value The amount to be transferred.\n\t*/\n\tfunction transfer(address _to, uint256 _value) public returns (bool) {\n\t\trequire(_to != address(0));\n\t\trequire(_value <= balances[msg.sender]);\n\n\t\t// SafeMath.sub will throw if there is not enough balance.\n\t\tbalances[msg.sender] = balances[msg.sender].sub(_value);\n\t\tbalances[_to] = balances[_to].add(_value);\n\t\temit Transfer(msg.sender, _to, _value);\n\t\treturn true;\n\t}\n\n\t/**\n\t   * @dev Approve the passed address to spend the specified amount of tokens on behalf of msg.sender.\n\t   *\n\t   * Beware that changing an allowance with this method brings the risk that someone may use both the old\n\t   * and the new allowance by unfortunate transaction ordering. One possible solution to mitigate this\n\t   * race condition is to first reduce the spender's allowance to 0 and set the desired value afterwards:\n\t   * https://github.com/ethereum/EIPs/issues/20#issuecomment-263524729\n\t   * @param _spender The address which will spend the funds.\n\t   * @param _value The amount of tokens to be spent.\n\t   */\n\tfunction approve(address _spender, uint256 _value) public returns (bool) {\n\t\tallowed[msg.sender][_spender] = _value;\n\t\temit Approval(msg.sender, _spender, _value);\n\t\treturn true;\n\t}\n\n\t/**\n\t* @dev Transfer tokens from one address to another\n\t* @param _from address The address which you want to send tokens from\n\t* @param _to address The address which you want to transfer to\n\t* @param _value uint256 the amount of tokens to be transferred\n\t*/\n\tfunction transferFrom(address _from, address _to, uint256 _value) public returns (bool) {\n\t\trequire(_to != address(0));\n\t\trequire(_value <= balances[_from]);\n\t\trequire(_value <= allowed[_from][msg.sender]);\n\n\t\tbalances[_from] = balances[_from].sub(_value);\n\t\tbalances[_to] = balances[_to].add(_value);\n\t\tallowed[_from][msg.sender] = allowed[_from][msg.sender].sub(_value);\n\t\temit Transfer(_from, _to, _value);\n\t\treturn true;\n\t}\n\n\n\t/**\n\t* @dev Allows the current owner to transfer control of the contract to a newOwner.\n\t* @param newOwner The address to transfer ownership to.\n\t*/\n\tfunction transferOwnership(address newOwner) public onlyOwner {\n\t\trequire(newOwner != address(0));\n\t\temit OwnershipTransferred(owner, newOwner);\n\t\towner = newOwner;\n\t}\n\n\tfunction mint(address _to, uint256 _amount) onlyOwner public returns (bool) {\n\t\ttotalSupply = totalSupply.add(_amount);\n\t\tbalances[_to] = balances[_to].add(_amount);\n\t\temit Mint(_to, _amount);\n\t\temit Transfer(address(0), _to, _amount);\n\t\treturn true;\n\t}\n}\n",
  "sourcePath": "/home/my/tools/dApp/proj/contracts/OurTutoCoin.sol",
  "compiler": {
    "name": "solc",
    "version": "0.4.24+commit.e67f0147.Emscripten.clang"
  },
  "schemaVersion": "2.0.1",
  "updatedAt": "2018-10-17T09:17:58.708Z"
}